:100000000C944E030C946B030C946B030C946B03D5
:100010000C949A030C946B030C946B030C946B0379
:100020000C946B030C946B030C946B030C946B0398
:100030000C946B030C946B030C946B030C946B0388
:100040000C946B030C946B030C946B030C946B0378
:100050000C946B030C946B030C946B030C946B0368
:100060000C946B030C946B03000000000000000074
:10007000000000000000000000000000000080E020
:10008000F0F0F8FCFEFEF8E0C00000000000000008
:1000900000000000000000000000C0E0F8FEFEFCD0
:1000A000F8F0F0E080000000000000000000000018
:1000B0000000000000000000000000000000000040
:1000C0000000000000000000000000000000E0F858
:1000D000FEFFFFFFFFFFFFFFFFFFFFFFFFFFFCF043
:1000E000E0800000000000000080E0F0FCFFFFFF67
:1000F000FFFFFFFFFFFFFFFFFFFFFEF8E000000034
:1001000000000000000000000000000000000000EF
:1001100000000000000000000000000000000000DF
:10012000007F7F7F7F7F7F7F7F7F7F7F7F7F7F7F5E
:100130007F7F1F0361F8FCFCFEFEFEFCFCF86107FC
:100140001F7F7F7F7F7F7F7F7F7F7F7F7F7F7F7F1F
:100150007F7E0000000000000000000000000000A2
:10016000000000000000000000000000000000008F
:10017000000000000000000000000000000000007F
:100180000000000000000000C0E3E3E7E7EFE7E75E
:10019000E3E3C000000000000000000000000000D9
:1001A000000000000000000000000000000000004F
:1001B000000000000000000000000000000000003F
:1001C000000000000000000000000000000000002F
:1001D0000000000000000080E0F0FCFFFFFFFFFFD8
:1001E000FFFFFFFFFFFFFFFFFCF0E08000000000CB
:1001F00000000000000000000000000000000000FF
:1002000000000000000000000000000000000000EE
:1002100000000000000000000000000000000000DE
:10022000000000000000000000081E1F1F3F3F3FAD
:100230007F7F7F7F7F7F7F7F7F7F7F3F3F3F1F1F4E
:100240000E08000000000000000000000000000098
:10025000000000000000000000000000000000009E
:100260000080C0E0E060E0E0C0800000000000002E
:1002700070FFFF0100000000FFFFFE000000000013
:10028000000F1F3C383038381F0F030000000000FB
:100290000000000080E0E00000000000000000001E
:1002A0000000030303FFFF00000000000000000047
:1002B00000003838383F3F38383800000000000070
:1002C00000C0C0E06060E0E0C0800000000000000E
:1002D0000001000080C0E0F93F1F000000000000A6
:1002E000003C3E3F3F3B39383838380000000000C2
:1002F00000C0E0E06060E0E0C0C00000000000007E
:10030000000100003030387DEFCF00000000000019
:10031000001C38383030383C1F0F0100000000004E
:10032000000000000080C0E0E000000000000000CD
:10033000E0F0F8DECFC7C1FFFFC0C0000000000042
:10034000000000000000003F3F000000000000002F
:1003500000E0E0E0E0E0E0E0E0E0E00000000000DD
:10036000003F3F3F38383070F0E0000000000000F0
:10037000001C38383030383C1F0F010000000000EE
:10038000000080C0C0E06060E0E00000000000000D
:10039000E0FEFF3739181838F0F0C0000000000008
:1003A000000F1F1C383030381F0F070000000000FE
:1003B00000E0E0E0E0E0E0E0E0E0E000000000007D
:1003C0000000000080E0F87E1F0701000000000030
:1003D0000000383E1F070100000000000000000080
:1003E0000080C0E0E06060E0C0C0000000000000ED
:1003F00000CFFF7F38307070FFEFC70000000000B3
:10040000030F1F3C383030381F1F0F000000000062
:100410000080C0E0E060E0E0C0800000000000007C
:100420000C3F7FF1E0C0C0E1FFFFFE0000000000D4
:10043000000038303038381E0F0700000000000080
:1004400000000000000000000000000000000000AC
:10045000000000000000000000000000000000009C
:100460003C3C3C00000000000000000000000000D8
:10047000000000000000000000000000000000007C
:1004800000004040404040FEFE40404040400000F0
:10049000000000000000000F0F000000000000003E
:1004A000000000000000000000000000000000004C
:1004B00000404040404040000000000000000000BC
:1004C000000000000000000000000000000000002C
:1004D000000000000000002F0000000700070014CB
:1004E0007F147F14242A7F2A12C4C8102646364956
:1004F0005522500005030000001C2241000041224B
:100500001C0014083E081408083E0808000050307B
:10051000001010101010006060000020100804028D
:100520003E5149453E00427F4000426151494621CB
:1005300041454B311814127F1027454545393C4A37
:100540004949300171090503364949493606494987
:10055000291E0036360000005636000008142241DD
:100560000014141414140041221408020151090645
:10057000324959513E7E1111117E7F494949363E1B
:10058000414141227F4141221C7F494949417F0924
:100590000909013E4149497A7F0808087F00417FE7
:1005A00041002040413F017F081422417F404040EC
:1005B000407F020C027F7F0408107F3E4141413E94
:1005C0007F090909063E4151215E7F0919294646E6
:1005D0004949493101017F01013F4040403F1F200F
:1005E00040201F3F4038403F6314081463070870E1
:1005F00008076151494543007F414100552A552A6A
:10060000550041417F000402010204404040404047
:10061000000102040020545454787F484444383880
:1006200044444420384444487F3854545418087E85
:100630000901020C5252523E7F0804047800447DA6
:1006400040002040443D007F1028440000417F408E
:10065000007C041804787C08040478384444443846
:100660007C14141408081414187C7C08040408482A
:1006700054545420043F4440203C4040207C1C20E3
:1006800040201C3C4030403C44281028440C505032
:10069000503C4464544C44000609090611241FBE12
:1006A000CFEFD4E0DEBFCDBF12E0A0E0B1E0E6EED8
:1006B000F9E102C005900D92AE31B107D9F714E00F
:1006C000AEE1B2E001C01D92A13CB107E1F70E948A
:1006D00083030C94F10C0C94000084B18C6284B9F7
:1006E00024988AB18C688AB9229A2A98439A0895E4
:1006F000E8E6F0E0808182608083ECE6F0E08081D3
:100700008860808308950E946D03809168008260F4
:100710008093680080916C00886080936C0082E513
:100720008CBD1DBC0E943B0580E091E00E94140638
:100730007894FFCF1F920F920FB60F9211242F9330
:100740003F934F935F936F937F938F939F93AF9359
:10075000BF93EF93FF9380E69AEE0197F1F73399F9
:1007600008C02A9A0E94F70488E690E00E949E043E
:1007700010C00E94F70489E091E00E94140680E115
:1007800097E22CE231E0F9013197F1F70197D9F7BF
:100790002A98FF91EF91BF91AF919F918F917F9197
:1007A0006F915F914F913F912F910F900FBE0F90DE
:1007B0001F90189588E58CBD0895882311F05B9AE9
:1007C00001C05B985A986EBD0DB407FEFDCF5A9AD2
:1007D0002B9808955B985A988EBD0DB407FEFDCFF7
:1007E0005A9A2B9808955B9A5A988EBD0DB407FEBD
:1007F000FDCF5A9A2B980895462F469546954695D3
:1008000050E06770A1E0B0E002C0AA0FBB1F6A957C
:10081000E2F724E530E0429FF001439FF00D529F44
:10082000F00D1124E80FF11DE05EFD4F80818A2B51
:1008300080830895E62FE695E695E695F0E06770EB
:1008400021E030E002C0220F331F6A95E2F72095C5
:1008500044E550E0BF01649FF001659FF00D749F77
:10086000F00D1124E80FF11DE05EFD4F808128237B
:10087000208308950F931F93082F162F80680E94DE
:10088000EA03812F80640E94EA0310931E02009302
:100890001F021F910F9108950F931F93762F769546
:1008A00076957695472F50E0677001E010E002C022
:1008B000000F111F6A95E2F7009524E530E0429F92
:1008C000F001439FF00D529FF00D1124E80FF11D30
:1008D000E05EFD4F908109230083672F0E943A0458
:1008E000802F0E94F3031F910F9108951F93962F5D
:1008F000969596959695E92FF0E0677041E050E067
:1009000002C0440F551F6A95E2F724E530E0BF01AD
:10091000629FF001639FF00D729FF00D1124E80FAC
:10092000F11DE05EFD4F1081142B1083692F0E9492
:100930003A04812F0E94F3031F9108950F931F9390
:10094000CF93DF938C0180E060E00E943A04C0E026
:10095000D0E0F801EC0FFD1FE4918E2F0E94F3030D
:10096000219681E0C83FD807A1F7DF91CF911F9171
:100970000F910895CF92DF92EF92FF920F931F9302
:10098000CF93DF9380E060E00E943A04EE24FF24DE
:1009900084E5C82ED12C80E06E2D0E943A04EC9C98
:1009A0008001ED9C100DFC9C100D1124005E1D4F6C
:1009B000C0E0D0E0F80181918F010E94F3032196FD
:1009C000C435D105B9F70894E11CF11CF7E0EF1626
:1009D000F10409F780E060E00E943A04DF91CF91D2
:1009E0001F910F91FF90EF90DF90CF900895CF92DD
:1009F000DF92EF92FF920F931F93CF93DF9380E0EC
:100A000060E00E943A04EE24FF2494E5C92ED12C24
:100A100019C080E00E94F30386E0E816F1042CF48C
:100A2000C435D10514F4F801108221960F5F1F4FD1
:100A3000CA35D10571F70894E11CF11CF8E0EF16F6
:100A4000F10461F0EC9C8001ED9C100DFC9C100DFC
:100A50001124005E1D4FC0E0D0E0DBCF80E060E0FD
:100A60000E943A04DF91CF911F910F91FF90EF9078
:100A7000DF90CF9008955A9A5F985F9A81E20E9422
:100A8000EA038CEA0E94EA0384E00E94EA0385E11B
:100A90000E94EA0380E20E94EA038CE00E94EA03DB
:100AA0000E94F70408950F931F93CF93DF939091C3
:100AB0001E02692F70E010911F02412F50E024E5C3
:100AC00030E0629FF001639FF00D729FF00D1124E2
:100AD000E40FF51FE05EFD4F108295E0899FC00195
:100AE0001124DF01FC01E05DFB4F9C012B5C3B4FBF
:100AF00094918C91892B8D933196E217F307C1F76E
:100B000084E590E09C01629FC001639F900D729FFD
:100B1000900D1124FC01E05EFD4FE40FF51F1682DD
:100B2000EC01012F095FFE01E10FF11DE05EFD4FB9
:100B300080810E94F3031F5F1017A9F710931F0213
:100B4000DF91CF911F910F910895BF92CF92DF92C5
:100B5000EF92FF920F931F93CF93DF938E3211F496
:100B60009AE00AC08B3211F49BE006C08D3211F47A
:100B70009CE002C0982F9F7080E3989F7001112421
:100B800080E692E0E80EF91E32E0C32E24E5B22E94
:100B90008091C0048C5F6C2D0E943A0490911F02DA
:100BA00080911E028B9DE0011124C90FD11DC05EF2
:100BB000DD4F8701DD24F80184919881892B899389
:100BC0000E94F303D3940F5F1F4FF0E1DF1699F7F4
:100BD000C39480E190E0E80EF91E95E0C916C1F6D5
:100BE0008091C004845F8093C004DF91CF911F91F6
:100BF0000F91FF90EF90DF90CF90BF900895CF932B
:100C0000DF93EC011092C00403C021960E94A50559
:100C100088818823D1F78091C0048A5F63E00E94B5
:100C20003A04DF91CF910895CF93DF93EC0103C095
:100C300021960E94530588818823D1F7DF91CF91B7
:100C40000895AF92BF92CF92DF92EF92FF920F93EF
:100C50001F93AA2797FDA095BA2FBC01CD010E9432
:100C6000130A5B016C0120E030E84BE355E40E947D
:100C700089087B018C0120E030E040E85FE30E94BE
:100C8000E30988231CF461E070E024C0C801B701C7
:100C900020E03FEF4FE757E40E9483091816B4F4B1
:100CA000C601B50120E030E040E251E40E9489082D
:100CB0000E94B3068CE291E005C0FC013197F1F788
:100CC0006150704061157105C1F707C0C801B701D7
:100CD0000E94B306CB010197F1F71F910F91FF908E
:100CE000EF90DF90CF90BF90AF900895FF920F9359
:100CF0001F93CF93DF9310E044E5F42E0FEF80E0D5
:100D0000612F0E943A0490911F0280911E028F9DD4
:100D1000F0011124E90FF11DE05EFD4FEF01DF014D
:100D200090E0992311F0933511F400830BC0112347
:100D300021F488818860888305C0163019F48C916D
:100D400084608C939F5F319621961196943549F774
:100D50001F5F1730A1F60E94BA04DF91CF911F9157
:100D60000F91FF900895EF92FF920F931F937B01D5
:100D70008C0120E030E040E05FE40E94B30988236A
:100D80008CF0C801B70120E030E040E05FE40E9451
:100D90002B080E94710A9B01AC012050304040405A
:100DA000504806C0C801B7010E94710A9B01AC01FE
:100DB000B901CA011F910F91FF90EF900895A0E033
:100DC000B0E0E5EEF6E00C94BA0CDC012B01FA0180
:100DD0009C91923008F439C1EB018881823008F48B
:100DE00033C1943069F4843009F02FC111969C917D
:100DF00011978981981709F428C1A6E1B1E025C1AE
:100E0000843009F421C18230A9F4923009F01DC167
:100E10009A01AD0188E0EA010990AE01E901099269
:100E20009E018150C1F7E201898111969C9189232D
:100E3000818308C1923009F407C112962D903C902D
:100E40001397EB018A819B811496AD90BD90CD9054
:100E5000DC901797EC80FD800E811F819101281B8B
:100E6000390BB90137FF04C066277727621B730B64
:100E7000603271050CF061C0121613066CF5370173
:100E80004801062E04C096948794779467940A9438
:100E9000D2F721E030E040E050E004C0220F331FE1
:100EA000441F551F6A95D2F72150304040405040B2
:100EB0002E213F21402351232115310541055105A4
:100EC00021F021E030E040E050E079018A01E6289D
:100ED000F728082919293CC0232BD1F1260E371EEB
:100EE00035014601062E04C0969487947794679442
:100EF0000A94D2F721E030E040E050E004C0220F35
:100F0000331F441F551F6A95D2F72150304040408F
:100F100050402A213B214C215D21211531054105FD
:100F2000510521F021E030E040E050E059016A0134
:100F3000A628B728C828D9280BC0821593052CF0FD
:100F40001C01AA24BB24650103C0EE24FF248701F1
:100F500011969C91D20111968C91981709F445C075
:100F6000992339F0A80197012A193B094C095D0919
:100F700006C0A60195012E193F09400B510B57FDE4
:100F800008C01182338222822483358346835783AB
:100F90001DC081E081833382228288279927DC016A
:100FA000821B930BA40BB50B84839583A683B78315
:100FB0000DC0220F331F441F551F248335834683E2
:100FC0005783828193810197938382832481358122
:100FD00046815781DA01C9010197A109B1098F5FE3
:100FE0009F4FAF4FBF4328F30BC0918333822282C0
:100FF000EA0CFB1C0C1D1D1DE482F5820683178381
:1010000083E08083248135814681578157FF1AC050
:10101000C901AA2797FDA095BA2F81709070A07082
:10102000B0705695479537952795822B932BA42B17
:10103000B52B84839583A683B783828193810196A0
:1010400093838283DF0101C0D201CD01CDB7DEB72A
:10105000E2E10C94D60CA0E2B0E0E1E3F8E00C94FD
:10106000C60C69837A838B839C832D833E834F8355
:101070005887E9E0EE2EF12CEC0EFD1ECE01019614
:10108000B7010E94E90B8E010F5E1F4FCE0105963E
:10109000B8010E94E90B8A8991E089278A8BC701F0
:1010A000B801AE01475E5F4F0E94DF060E94140B3D
:1010B000A096E6E00C94E20CA0E2B0E0E2E6F8E0F4
:1010C0000C94C60C69837A838B839C832D833E8327
:1010D0004F835887F9E0EF2EF12CEC0EFD1ECE0168
:1010E0000196B7010E94E90B8E010F5E1F4FCE01E2
:1010F0000596B8010E94E90BC701B801AE01475E31
:101100005F4F0E94DF060E94140BA096E6E00C944D
:10111000E20CA0E2B0E0EFE8F8E00C94BA0C6983CE
:101120007A838B839C832D833E834F835887CE01A4
:101130000196BE01675F7F4F0E94E90BCE010596C5
:10114000BE016F5E7F4F0E94E90B9985923088F057
:1011500089898230C8F0943019F4823051F404C087
:10116000843029F4923081F486E191E0C6C0923057
:1011700049F420E09A858A89981321E02A87CE01D4
:101180000996BBC0823049F420E09A858A89981379
:1011900021E02A8BCE014196B0C02D843E844F843D
:1011A00058886D887E888F88988CEE24FF2487016C
:1011B000AA24BB24650140E050E060E070E0E0E07C
:1011C000F0E0C10181709070892BE9F0E60CF71C0A
:1011D000081D191D9A01AB012A0D3B1D4C1D5D1DFB
:1011E00080E090E0A0E0B0E0E614F70408051905FF
:1011F00020F481E090E0A0E0B0E0BA01A901480F3E
:10120000591F6A1F7B1FAA0CBB1CCC1CDD1C97FE40
:1012100008C081E090E0A0E0B0E0A82AB92ACA2A7C
:10122000DB2A3196E032F10549F0660C771C881C08
:10123000991C5694479437942794C3CFFA85EA892A
:101240002B893C898B859C85280F391F2E5F3F4F4A
:1012500017C0CA0181709070892B61F016950795AF
:10126000F794E79480E090E0A0E0B0E8E82AF92A5B
:101270000A2B1B2B76956795579547952F5F3F4F08
:1012800077FDE7CF0CC0440F551F661F771F17FD72
:101290004160EE0CFF1C001F111F215030404030F8
:1012A00090E0590790E0690790E4790760F32B8F8D
:1012B0003C8FDB01CA018F779070A070B0708034D2
:1012C0009105A105B10561F447FD0AC0E114F104DF
:1012D0000105110529F0405C5F4F6F4F7F4F40784B
:1012E0001A8EFE1711F081E08A8F4D8F5E8F6F8FFF
:1012F00078A383E0898FCE0149960E94140BA096B3
:10130000E2E10C94D60CA8E1B0E0E9E8F9E00C9435
:10131000C60C69837A838B839C832D833E834F83A2
:10132000588789E0E82EF12CEC0EFD1ECE010196C7
:10133000B7010E94E90B8E010F5E1F4FCE0105968B
:10134000B8010E94E90B8985823040F0898982309A
:1013500028F0C701B8010E94610C01C08FEF6896A8
:10136000E6E00C94E20CA8E1B0E0E9EBF9E00C94C3
:10137000C60C69837A838B839C832D833E834F8342
:10138000588789E0E82EF12CEC0EFD1ECE01019667
:10139000B7010E94E90B8E010F5E1F4FCE0105962B
:1013A000B8010E94E90B8985823040F0898982303A
:1013B00028F0C701B8010E94610C01C08FEF689648
:1013C000E6E00C94E20CA8E1B0E0E9EEF9E00C9460
:1013D000C60C69837A838B839C832D833E834F83E2
:1013E000588789E0E82EF12CEC0EFD1ECE01019607
:1013F000B7010E94E90B8E010F5E1F4FCE010596CB
:10140000B8010E94E90B8985823040F089898230D9
:1014100028F0C701B8010E94610C01C081E0689604
:10142000E6E00C94E20CA8E0B0E0E9E1FAE00C940C
:10143000C30C9B01AC0183E08983DA01C9018827D1
:10144000B7FD83959927AA27BB27B82E211531050B
:101450004105510519F482E089833AC08823A9F037
:10146000203080E0380780E0480780E8580729F4FA
:1014700060E070E080E09FEC30C0EE24FF24870144
:10148000E21AF30A040B150B02C079018A018EE1FE
:10149000C82ED12CDC82CB82ED82FE820F8318878E
:1014A000C801B7010E94C50A01971816190684F4ED
:1014B000082E04C0EE0CFF1C001F111F0A94D2F767
:1014C000ED82FE820F831887C81AD90ADC82CB828C
:1014D000BA82CE0101960E94140B2896E9E00C9482
:1014E000DF0CACE0B0E0E7E7FAE00C94CA0C6983EB
:1014F0007A838B839C83CE010196BE016B5F7F4F05
:101500000E94E90B8D81823061F1823050F184308C
:1015100021F48E81882351F12EC02F81388537FD2B
:1015200020C06E812F3131051CF06623F9F023C0F5
:101530008EE190E0821B930B29853A854B855C8573
:1015400004C056954795379527958A95D2F7662317
:10155000B1F050954095309521953F4F4F4F5F4FDB
:101560000EC020E030E040E050E009C02FEF3FEF38
:101570004FEF5FE704C020E030E040E050E8B90101
:10158000CA012C96E2E00C94E60CEF92FF920F93C6
:101590001F937B018C0180E0E81680E0F80681E073
:1015A000080780E0180788F48FEFE816F1040105BA
:1015B000110531F028F088E090E0A0E0B0E017C01D
:1015C00080E090E0A0E0B0E012C080E0E81680E0AB
:1015D000F80680E0080781E0180728F088E190E02D
:1015E000A0E0B0E004C080E190E0A0E0B0E020E244
:1015F00030E040E050E0281B390B4A0B5B0B04C085
:1016000016950795F794E7948A95D2F7F701E25E6D
:10161000FE4F8081281B310941095109C9011F91E1
:101620000F91FF90EF900895DF92EF92FF920F934A
:101630001F93FC01E480F58006811781D1808081B1
:10164000823048F480E090E0A0E1B0E0E82AF92A96
:101650000A2B1B2BA5C0843009F49FC0823021F4D3
:10166000EE24FF24870105C0E114F10401051105F2
:1016700019F4E0E0F0E096C0628173819FEF623878
:1016800079070CF05BC022E83FEF261B370B2A31AD
:1016900031052CF020E030E040E050E02AC0B801F5
:1016A000A701022E04C076956795579547950A9431
:1016B000D2F781E090E0A0E0B0E004C0880F991F6D
:1016C000AA1FBB1F2A95D2F70197A109B1098E2144
:1016D0009F21A023B1230097A105B10521F081E04E
:1016E00090E0A0E0B0E09A01AB01282B392B4A2B07
:1016F0005B2BDA01C9018F779070A070B0708034D5
:101700009105A105B10539F427FF09C0205C3F4FC1
:101710004F4F5F4F04C0215C3F4F4F4F5F4FE0E0A2
:10172000F0E02030A0E03A07A0E04A07A0E45A0722
:1017300010F0E1E0F0E079018A0127C0603871051E
:1017400064F5FB01E158FF4FD801C7018F77907016
:10175000A070B07080349105A105B10539F4E7FEA1
:101760000DC080E490E0A0E0B0E004C08FE390E022
:10177000A0E0B0E0E80EF91E0A1F1B1F17FF05C00E
:1017800016950795F794E794319687E01695079597
:10179000F794E7948A95D1F705C0EE24FF248701DA
:1017A000EFEFF0E06E2F679566276795902F9F7794
:1017B000D794DD24D7948E2F8695492F462B582F0A
:1017C0005D29B701CA011F910F91FF90EF90DF9043
:1017D0000895FC01DB01408151812281622F6F77E6
:1017E00070E0221F2227221F9381892F880F822BCE
:1017F000282F30E0991F9927991F11969C931197D4
:1018000021153105A9F5411551056105710511F441
:1018100082E037C082E89FEF13969C938E931297D5
:101820009A01AB0167E0220F331F441F551F6A95D1
:10183000D1F783E08C930DC0220F331F441F551F37
:1018400012968D919C911397019713969C938E936A
:101850001297203080E0380780E0480780E458077E
:1018600058F314962D933D934D935C9317970895D9
:101870002F3F310579F4411551056105710519F4C2
:1018800084E08C93089564FF03C081E08C9312C0C0
:101890001C9210C02F57304013963C932E931297F2
:1018A00083E08C9387E0440F551F661F771F8A954E
:1018B000D1F7706414964D935D936D937C93179755
:1018C00008951F93DC01FB019C91923008F447C0FE
:1018D0008081823008F443C0943051F411961C91F9
:1018E000843099F58181682F70E0611B71093FC0D8
:1018F000843021F0923031F48230B9F18181882333
:1019000089F12DC011961C9111978230F1F08181DF
:101910001817D9F412962D913C91139782819381D7
:101920008217930794F028173907BCF014968D910D
:101930009D910D90BC91A02D2481358146815781C8
:10194000281739074A075B0718F4112341F00AC02A
:1019500082179307A407B50740F4112319F061E03B
:1019600070E005C06FEF7FEF02C060E070E0CB0178
:101970001F9108952F923F924F925F926F927F92A4
:101980008F929F92AF92BF92CF92DF92EF92FF928F
:101990000F931F93CF93DF93CDB7DEB7CA1BDB0B3B
:1019A0000FB6F894DEBF0FBECDBF09942A883988E0
:1019B00048885F846E847D848C849B84AA84B984E7
:1019C000C884DF80EE80FD800C811B81AA81B981F3
:1019D000CE0FD11D0FB6F894DEBF0FBECDBFED0107
:0619E0000895F894FFCF0A
:1019E60052656164792E2E2E005553422064697328
:1019F600636F6E6E2E000000000000000000000104
:101A06000202030303030404040404040404050596
:101A1600050505050505050505050505050506066E
:101A26000606060606060606060606060606060650
:101A3600060606060606060606060606060607073E
:101A46000707070707070707070707070707070720
:101A56000707070707070707070707070707070710
:101A66000707070707070707070707070707070700
:101A760007070707070707070707070707070808EE
:101A860008080808080808080808080808080808D0
:101A960008080808080808080808080808080808C0
:101AA60008080808080808080808080808080808B0
:101AB60008080808080808080808080808080808A0
:101AC6000808080808080808080808080808080890
:101AD6000808080808080808080808080808080880
:101AE6000808080808080808080808080808080870
:0E1AF600080808080808080808080808080872
:00000001FF
