:100000000C9416020C9433020C9433020C943302B9
:100010000C941E030C9433020C9433020C943302A0
:100020000C9433020C9433020C9433020C9433027C
:100030000C9433020C9433020C9433020C9433026C
:100040000C9433020C9433020C9474020C9433021B
:100050000C9433020C9433020C9433020C9433024C
:100060000C9433020C9433020000000000000000E6
:10007000000000000000000000000000000080E020
:10008000F0F0F8FCFEFEF8E0C00000000000000008
:1000900000000000000000000000C0E0F8FEFEFCD0
:1000A000F8F0F0E080000000000000000000000018
:1000B0000000000000000000000000000000000040
:1000C0000000000000000000000000000000E0F858
:1000D000FEFFFFFFFFFFFFFFFFFFFFFFFFFFFCF043
:1000E000E0800000000000000080E0F0FCFFFFFF67
:1000F000FFFFFFFFFFFFFFFFFFFFFEF8E000000034
:1001000000000000000000000000000000000000EF
:1001100000000000000000000000000000000000DF
:10012000007F7F7F7F7F7F7F7F7F7F7F7F7F7F7F5E
:100130007F7F1F0361F8FCFCFEFEFEFCFCF86107FC
:100140001F7F7F7F7F7F7F7F7F7F7F7F7F7F7F7F1F
:100150007F7E0000000000000000000000000000A2
:10016000000000000000000000000000000000008F
:10017000000000000000000000000000000000007F
:100180000000000000000000C0E3E3E7E7EFE7E75E
:10019000E3E3C000000000000000000000000000D9
:1001A000000000000000000000000000000000004F
:1001B000000000000000000000000000000000003F
:1001C000000000000000000000000000000000002F
:1001D0000000000000000080E0F0FCFFFFFFFFFFD8
:1001E000FFFFFFFFFFFFFFFFFCF0E08000000000CB
:1001F00000000000000000000000000000000000FF
:1002000000000000000000000000000000000000EE
:1002100000000000000000000000000000000000DE
:10022000000000000000000000081E1F1F3F3F3FAD
:100230007F7F7F7F7F7F7F7F7F7F7F3F3F3F1F1F4E
:100240000E08000000000000000000000000000098
:10025000000000000000000000000000000000009E
:10026000000000000000002F00000007000700143D
:100270007F147F14242A7F2A12C4C81026463649C8
:100280005522500005030000001C224100004122BD
:100290001C0014083E081408083E080800005030EE
:1002A0000010101010100060600000201008040200
:1002B0003E5149453E00427F40004261514946213E
:1002C00041454B311814127F1027454545393C4AAA
:1002D00049493001710905033649494936064949FA
:1002E000291E003636000000563600000814224150
:1002F00000141414141400412214080201510906B8
:10030000324959513E7E1111117E7F494949363E8D
:10031000414141227F4141221C7F494949417F0996
:100320000909013E4149497A7F0808087F00417F59
:1003300041002040413F017F081422417F4040405E
:10034000407F020C027F7F0408107F3E4141413E06
:100350007F090909063E4151215E7F091929464658
:100360004949493101017F01013F4040403F1F2081
:1003700040201F3F4038403F631408146307087053
:1003800008076151494543007F414100552A552ADC
:10039000550041417F0004020102044040404040BA
:1003A000000102040020545454787F4844443838F3
:1003B00044444420384444487F3854545418087EF8
:1003C0000901020C5252523E7F0804047800447D19
:1003D00040002040443D007F1028440000417F4001
:1003E000007C041804787C080404783844444438B9
:1003F0007C14141408081414187C7C08040408489D
:1004000054545420043F4440203C4040207C1C2055
:1004100040201C3C4030403C44281028440C5050A4
:10042000503C4464544C44000609090611241FBE84
:10043000CFEFD4E0DEBFCDBF12E0A0E0B1E0E4E456
:10044000F8E102C005900D92A634B107D9F715E086
:10045000A6E4B2E001C01D92A330B107E1F70E940B
:10046000EB020C94200C0C94000084B18C6284B9D3
:1004700024988AB18C688AB9229A2A98439A089556
:10048000E8E6F0E0808182608083ECE6F0E0808145
:1004900088608083E1ECF0E080818068808308954B
:1004A000E1ECF0E08081886180831092C5008CE0EF
:1004B0008093C400089582E58CBD1DBC0895982FDB
:1004C0008091C00085FFFCCF9093C6000895FC0189
:1004D00007C08091C00085FFFCCF31969093C60085
:1004E00090819923B1F708951F920F920FB60F9242
:1004F00011242F933F934F935F936F937F938F9329
:100500009F93AF93BF93EF93FF9380914802909195
:1005100049022091C600FC01E251FB4F2083019665
:100520009093490280934802E0914802F091490279
:10053000E351FB4FE0818091C00085FFFCCFE09349
:10054000C600E0914802F0914902E351FB4F8081DF
:100550008D3089F48091EE04833731F481E090E0AE
:1005600090934B0280934A021092490210924802E3
:1005700080E091E00FC0E0914802F0914902E35120
:10058000FB4F80818B3141F4109249021092480256
:1005900084E091E00E946702FF91EF91BF91AF91DB
:1005A0009F918F917F916F915F914F913F912F918B
:1005B0000F900FBE0F901F9018950E94950488E031
:1005C00091E00E94430583B7856083BF81E08093FB
:1005D000470288950895CF93DF930E9435020E94C9
:1005E000400282E58CBD1DBC0E94D904789481E054
:1005F0008093460220E23EE4CCE2D1E005C0CE0189
:100600000197F1F72150304021153105C1F7809154
:100610004602882311F00E94DD0280914A029091E7
:100620004B02019741F485E191E00E94670210922C
:100630004B0210924A0220E23EE4E1CF1F920F9259
:100640000FB60F9211242F933F934F935F936F93A5
:100650007F938F939F93AF93BF93EF93FF9380917B
:100660004702882389F082E58CBD1DBC8091C100C2
:1006700088618093C1001092C5008CE08093C40013
:100680000E94D9041092470280E69AEE0197F1F792
:1006900033990AC0109246022A9A0E94950488E66D
:1006A00090E00E943C0413C081E0809346020E94C7
:1006B000950480E391E00E94430580E197E22CE2FB
:1006C00031E0F9013197F1F70197D9F72A98FF91B5
:1006D000EF91BF91AF919F918F917F916F915F91BA
:1006E0004F913F912F910F900FBE0F901F90189533
:1006F00088E58CBD0895882311F05B9A01C05B9852
:100700005A986EBD0DB407FEFDCF5A9A2B980895E6
:100710005B985A988EBD0DB407FEFDCF5A9A2B9860
:1007200008955B9A5A988EBD0DB407FEFDCF5A9A74
:100730002B980895462F46954695469550E067704C
:10074000A1E0B0E002C0AA0FBB1F6A95E2F724E562
:1007500030E0429FF001439FF00D529FF00D1124B5
:10076000E80FF11DE25BFD4F80818A2B80830895A5
:10077000E62FE695E695E695F0E0677021E030E03B
:1007800002C0220F331F6A95E2F7209544E550E03E
:10079000BF01649FF001659FF00D749FF00D11245F
:1007A000E80FF11DE25BFD4F80812823208308952F
:1007B0000F931F93082F162F80680E948803812FA4
:1007C00080640E94880310934C0200934D021F9195
:1007D0000F9108950F931F93762F769576957695C2
:1007E000472F50E0677001E010E002C0000F111FBA
:1007F0006A95E2F7009524E530E0429FF001439FBF
:10080000F00D529FF00D1124E80FF11DE25BFD4F3A
:10081000908109230083672F0E94D803802F0E94B4
:1008200091031F910F9108951F93962F969596957A
:100830009695E92FF0E0677041E050E002C0440F68
:10084000551F6A95E2F724E530E0BF01629FF00191
:10085000639FF00D729FF00D1124E80FF11DE25B14
:10086000FD4F1081142B1083692F0E94D803812F14
:100870000E9491031F9108950F931F93CF93DF93CD
:100880008C0180E060E00E94D803C0E0D0E0F80175
:10089000EC0FFD1FE4918E2F0E949103219681E0C1
:1008A000C83FD807A1F7DF91CF911F910F9108950D
:1008B000CF92DF92EF92FF920F931F93CF93DF932C
:1008C00080E060E00E94D803EE24FF2484E5C82E77
:1008D000D12C80E06E2D0E94D803EC9C8001ED9C11
:1008E000100DFC9C100D1124025B1D4FC0E0D0E0E8
:1008F000F80181918F010E9491032196C435D105A1
:10090000B9F70894E11CF11CF7E0EF16F10409F7C0
:1009100080E060E00E94D803DF91CF911F910F919A
:10092000FF90EF90DF90CF900895CF92DF92EF92FB
:10093000FF920F931F93CF93DF9380E060E00E94BC
:10094000D803EE24FF2494E5C92ED12C19C080E0F1
:100950000E94910386E0E816F1042CF4C435D10519
:1009600014F4F801108221960F5F1F4FCA35D1058C
:1009700071F70894E11CF11CF8E0EF16F10461F046
:10098000EC9C8001ED9C100DFC9C100D1124025B71
:100990001D4FC0E0D0E0DBCF80E060E00E94D803D4
:1009A000DF91CF911F910F91FF90EF90DF90CF904B
:1009B00008955A9A5F985F9A81E20E9488038CE9B1
:1009C0000E94880384E00E94880385E10E948803D6
:1009D00080E20E9488038CE00E9488030E949504B4
:1009E00008950F931F93CF93DF9390914C02692F3B
:1009F00070E010914D02412F50E024E530E0629FFD
:100A0000F001639FF00D729FF00D1124E40FF51FAC
:100A1000E25BFD4F108295E0899FC0011124DF0148
:100A2000FC01E054FE4F9C012B533E4F94918C915E
:100A3000892B8D933196E217F307C1F784E590E097
:100A40009C01629FC001639F900D729F900D1124C5
:100A5000FC01E25BFD4FE40FF51F1682EC01012F54
:100A6000095FFE01E10FF11DE25BFD4F80810E94F5
:100A700091031F5F1017A9F710934D02DF91CF91DB
:100A80001F910F910895CF93DF93EC0103C021963E
:100A90000E94F10488818823D1F7DF91CF910895D6
:100AA000AF92BF92CF92DF92EF92FF920F931F937C
:100AB000AA2797FDA095BA2FBC01CD010E9442093B
:100AC0005B016C0120E030E84BE355E40E94B8077D
:100AD0007B018C0120E030E040E85FE30E941209D6
:100AE00088231CF461E070E024C0C801B70120E055
:100AF0003FEF4FE757E40E94B2081816B4F4C6015E
:100B0000B50120E030E040E251E40E94B8070E94C5
:100B1000E2058CE291E005C0FC013197F1F76150EC
:100B2000704061157105C1F707C0C801B7010E9487
:100B3000E205CB010197F1F71F910F91FF90EF9024
:100B4000DF90CF90BF90AF900895FF920F931F93C7
:100B5000CF93DF9310E024E5F22E0FEF80E0612FBA
:100B60000E94D80390914D0280914C028F9DF0011C
:100B70001124E90FF11DE25BFD4FEF01DF0190E071
:100B8000992311F0933511F400830BC0112321F444
:100B900088818860888305C0163019F48C91846040
:100BA0008C939F5F319621961196943549F71F5F7C
:100BB0001730A1F60E945804DF91CF911F910F9139
:100BC000FF900895EF92FF920F931F937B018C018A
:100BD00020E030E040E05FE40E94E20888238CF0EF
:100BE000C801B70120E030E040E05FE40E945A070E
:100BF0000E94A0099B01AC01205030404040504869
:100C000006C0C801B7010E94A0099B01AC01B9014F
:100C1000CA011F910F91FF90EF900895A0E0B0E0FE
:100C2000E4E1F6E00C94E90BDC012B01FA019C9164
:100C3000923008F439C1EB018881823008F433C165
:100C4000943069F4843009F02FC111969C9111976A
:100C50008981981709F428C1ADE3B1E025C184303A
:100C600009F421C18230A9F4923009F01DC19A0122
:100C7000AD0188E0EA010990AE01E90109929E0107
:100C80008150C1F7E201898111969C91892381836A
:100C900008C1923009F407C112962D903C90139729
:100CA000EB018A819B811496AD90BD90CD90DC9034
:100CB0001797EC80FD800E811F819101281B390B55
:100CC000B90137FF04C066277727621B730B6032B8
:100CD00071050CF061C0121613066CF5370148015E
:100CE000062E04C096948794779467940A94D2F75A
:100CF00021E030E040E050E004C0220F331F441FE9
:100D0000551F6A95D2F721503040404050402E2167
:100D10003F2140235123211531054105510521F083
:100D200021E030E040E050E079018A01E628F72830
:100D3000082919293CC0232BD1F1260E371E350175
:100D40004601062E04C096948794779467940A947B
:100D5000D2F721E030E040E050E004C0220F331F22
:100D6000441F551F6A95D2F72150304040405040F3
:100D70002A213B214C215D212115310541055105D9
:100D800021F021E030E040E050E059016A01A6285E
:100D9000B728C828D9280BC0821593052CF01C0150
:100DA000AA24BB24650103C0EE24FF248701119609
:100DB0009C91D20111968C91981709F445C0992302
:100DC00039F0A80197012A193B094C095D0906C0B1
:100DD000A60195012E193F09400B510B57FD08C084
:100DE00011823382228224833583468357831DC038
:100DF00081E081833382228288279927DC01821B4C
:100E0000930BA40BB50B84839583A683B7830DC086
:100E1000220F331F441F551F248335834683578376
:100E200082819381019793838283248135814681D6
:100E30005781DA01C9010197A109B1098F5F9F4F5D
:100E4000AF4FBF4328F30BC0918333822282EA0C59
:100E5000FB1C0C1D1D1DE482F5820683178383E0B5
:100E60008083248135814681578157FF1AC0C9018B
:100E7000AA2797FDA095BA2F81709070A070B070CE
:100E80005695479537952795822B932BA42BB52BF9
:100E900084839583A683B78382819381019693830C
:100EA0008283DF0101C0D201CD01CDB7DEB7E2E11F
:100EB0000C94050CA0E2B0E0E0E6F7E00C94F50B32
:100EC00069837A838B839C832D833E834F835887EA
:100ED000E9E0EE2EF12CEC0EFD1ECE010196B701DD
:100EE0000E94180B8E010F5E1F4FCE010596B801B0
:100EF0000E94180B8A8991E089278A8BC701B80163
:100F0000AE01475E5F4F0E940E060E94430AA09604
:100F1000E6E00C94110CA0E2B0E0E1E9F7E00C94FB
:100F2000F50B69837A838B839C832D833E834F8368
:100F30005887F9E0EF2EF12CEC0EFD1ECE01019644
:100F4000B7010E94180B8E010F5E1F4FCE01059650
:100F5000B8010E94180BC701B801AE01475E5F4F90
:100F60000E940E060E94430AA096E6E00C94110C23
:100F7000A0E2B0E0EEEBF7E00C94E90B69837A8332
:100F80008B839C832D833E834F835887CE010196AC
:100F9000BE01675F7F4F0E94180BCE010596BE0110
:100FA0006F5E7F4F0E94180B9985923088F0898977
:100FB0008230C8F0943019F4823051F404C0843087
:100FC00029F4923081F48DE391E0C6C0923049F467
:100FD00020E09A858A89981321E02A87CE01099614
:100FE000BBC0823049F420E09A858A89981321E0B9
:100FF0002A8BCE014196B0C02D843E844F84588800
:101000006D887E888F88988CEE24FF248701AA241F
:10101000BB24650140E050E060E070E0E0E0F0E01B
:10102000C10181709070892BE9F0E60CF71C081D56
:10103000191D9A01AB012A0D3B1D4C1D5D1D80E061
:1010400090E0A0E0B0E0E614F7040805190520F4EC
:1010500081E090E0A0E0B0E0BA01A901480F591F7B
:101060006A1F7B1FAA0CBB1CCC1CDD1C97FE08C092
:1010700081E090E0A0E0B0E0A82AB92ACA2ADB2AE1
:101080003196E032F10549F0660C771C881C991CFA
:101090005694479437942794C3CFFA85EA892B89CD
:1010A0003C898B859C85280F391F2E5F3F4F17C0C9
:1010B000CA0181709070892B61F016950795F7949D
:1010C000E79480E090E0A0E0B0E8E82AF92A0A2B53
:1010D0001B2B76956795579547952F5F3F4F77FD6B
:1010E000E7CF0CC0440F551F661F771F17FD4160E7
:1010F000EE0CFF1C001F111F21503040403090E0CB
:10110000590790E0690790E4790760F32B8F3C8FD3
:10111000DB01CA018F779070A070B07080349105A8
:10112000A105B10561F447FD0AC0E114F104010510
:10113000110529F0405C5F4F6F4F7F4F40781A8E4A
:10114000FE1711F081E08A8F4D8F5E8F6F8F78A32D
:1011500083E0898FCE0149960E94430AA096E2E17E
:101160000C94050CA8E1B0E0E8EBF8E00C94F50B6A
:1011700069837A838B839C832D833E834F83588737
:1011800089E0E82EF12CEC0EFD1ECE010196B70190
:101190000E94180B8E010F5E1F4FCE010596B801FD
:1011A0000E94180B8985823040F08989823028F0AE
:1011B000C701B8010E94900B01C08FEF6896E6E06E
:1011C0000C94110CA8E1B0E0E8EEF8E00C94F50BFB
:1011D00069837A838B839C832D833E834F835887D7
:1011E00089E0E82EF12CEC0EFD1ECE010196B70130
:1011F0000E94180B8E010F5E1F4FCE010596B8019D
:101200000E94180B8985823040F08989823028F04D
:10121000C701B8010E94900B01C08FEF6896E6E00D
:101220000C94110CA8E1B0E0E8E1F9E00C94F50BA6
:1012300069837A838B839C832D833E834F83588776
:1012400089E0E82EF12CEC0EFD1ECE010196B701CF
:101250000E94180B8E010F5E1F4FCE010596B8013C
:101260000E94180B8985823040F08989823028F0ED
:10127000C701B8010E94900B01C081E06896E6E0CA
:101280000C94110CA8E0B0E0E8E4F9E00C94F20B47
:101290009B01AC0183E08983DA01C9018827B7FD8E
:1012A00083959927AA27BB27B82E2115310541051B
:1012B000510519F482E089833AC08823A9F02030CF
:1012C00080E0380780E0480780E8580729F460E0AC
:1012D00070E080E09FEC30C0EE24FF248701E21A2A
:1012E000F30A040B150B02C079018A018EE1C82EA6
:1012F000D12CDC82CB82ED82FE820F831887C8015D
:10130000B7010E94F40901971816190684F4082EF3
:1013100004C0EE0CFF1C001F111F0A94D2F7ED82CF
:10132000FE820F831887C81AD90ADC82CB82BA8260
:10133000CE0101960E94430A2896E9E00C940E0C17
:10134000ACE0B0E0E6EAF9E00C94F90B69837A834B
:101350008B839C83CE010196BE016B5F7F4F0E9401
:10136000180B8D81823061F1823050F1843021F48C
:101370008E81882351F12EC02F81388537FD20C002
:101380006E812F3131051CF06623F9F023C08EE108
:1013900090E0821B930B29853A854B855C8504C0C0
:1013A00056954795379527958A95D2F76623B1F0DC
:1013B00050954095309521953F4F4F4F5F4F0EC050
:1013C00020E030E040E050E009C02FEF3FEF4FEF6A
:1013D0005FE704C020E030E040E050E8B901CA0116
:1013E0002C96E2E00C94150CEF92FF920F931F9352
:1013F0007B018C0180E0E81680E0F80681E00807B8
:1014000080E0180788F48FEFE816F1040105110554
:1014100031F028F088E090E0A0E0B0E017C080E074
:1014200090E0A0E0B0E012C080E0E81680E0F806AE
:1014300080E0080781E0180728F088E190E0A0E04C
:10144000B0E004C080E190E0A0E0B0E020E230E055
:1014500040E050E0281B390B4A0B5B0B04C016958B
:101460000795F794E7948A95D2F7F701EB5BFE4F67
:101470008081281B310941095109C9011F910F9130
:10148000FF90EF900895DF92EF92FF920F931F93DA
:10149000FC01E480F58006811781D1808081823053
:1014A00048F480E090E0A0E1B0E0E82AF92A0A2BB5
:1014B0001B2BA5C0843009F49FC0823021F4EE2498
:1014C000FF24870105C0E114F1040105110519F499
:1014D000E0E0F0E096C0628173819FEF62387907A7
:1014E0000CF05BC022E83FEF261B370B2A31310599
:1014F0002CF020E030E040E050E02AC0B801A70125
:10150000022E04C076956795579547950A94D2F7B1
:1015100081E090E0A0E0B0E004C0880F991FAA1F0E
:10152000BB1F2A95D2F70197A109B1098E219F21EE
:10153000A023B1230097A105B10521F081E090E03F
:10154000A0E0B0E09A01AB01282B392B4A2B5B2B92
:10155000DA01C9018F779070A070B0708034910566
:10156000A105B10539F427FF09C0205C3F4F4F4F5B
:101570005F4F04C0215C3F4F4F4F5F4FE0E0F0E012
:101580002030A0E03A07A0E04A07A0E45A0710F094
:10159000E1E0F0E079018A0127C06038710564F567
:1015A000FB01E158FF4FD801C7018F779070A07001
:1015B000B07080349105A105B10539F4E7FE0DC086
:1015C00080E490E0A0E0B0E004C08FE390E0A0E011
:1015D000B0E0E80EF91E0A1F1B1F17FF05C0169585
:1015E0000795F794E794319687E016950795F79459
:1015F000E7948A95D1F705C0EE24FF248701EFEF29
:10160000F0E06E2F679566276795902F9F77D794A8
:10161000DD24D7948E2F8695492F462B582F5D2990
:10162000B701CA011F910F91FF90EF90DF900895CD
:10163000FC01DB01408151812281622F6F7770E0D4
:10164000221F2227221F9381892F880F822B282F68
:1016500030E0991F9927991F11969C931197211596
:101660003105A9F5411551056105710511F482E0B7
:1016700037C082E89FEF13969C938E9312979A013E
:10168000AB0167E0220F331F441F551F6A95D1F746
:1016900083E08C930DC0220F331F441F551F1296F9
:1016A0008D919C911397019713969C938E9312970B
:1016B000203080E0380780E0480780E4580758F37E
:1016C00014962D933D934D935C93179708952F3F58
:1016D000310579F4411551056105710519F484E06E
:1016E0008C93089564FF03C081E08C9312C01C9218
:1016F00010C02F57304013963C932E93129783E0DF
:101700008C9387E0440F551F661F771F8A95D1F78A
:10171000706414964D935D936D937C931797089521
:101720001F93DC01FB019C91923008F447C080813B
:10173000823008F443C0943051F411961C918430E7
:1017400099F58181682F70E0611B71093FC0843079
:1017500021F0923031F48230B9F18181882389F10E
:101760002DC011961C9111978230F1F081811817CC
:10177000D9F412962D913C9113978281938182170F
:10178000930794F028173907BCF014968D919D911A
:101790000D90BC91A02D2481358146815781281759
:1017A00039074A075B0718F4112341F00AC0821772
:1017B0009307A407B50740F4112319F061E070E026
:1017C00005C06FEF7FEF02C060E070E0CB011F91BA
:1017D00008952F923F924F925F926F927F928F92D5
:1017E0009F92AF92BF92CF92DF92EF92FF920F93B0
:1017F0001F93CF93DF93CDB7DEB7CA1BDB0B0FB6BA
:10180000F894DEBF0FBECDBF09942A883988488876
:101810005F846E847D848C849B84AA84B984C8840C
:10182000DF80EE80FD800C811B81AA81B981CE0F03
:10183000D11D0FB6F894DEBF0FBECDBFED010895E8
:04184000F894FFCF4A
:101844003C0D0A002A0D0A0020202020202D2D20E6
:10185400202020200053544154555320636F6D6D54
:10186400616E642072656365697665642E0D0A0095
:1018740055534220646973636F6E6E2E000000003E
:101884000000000000000102020303030304040437
:1018940004040404040505050505050505050505F9
:1018A40005050505050606060606060606060606D9
:1018B40006060606060606060606060606060606C4
:1018C40006060606060707070707070707070707A9
:1018D4000707070707070707070707070707070794
:1018E4000707070707070707070707070707070784
:1018F4000707070707070707070707070707070774
:101904000707070707080808080808080808080858
:101914000808080808080808080808080808080843
:101924000808080808080808080808080808080833
:101934000808080808080808080808080808080823
:101944000808080808080808080808080808080813
:101954000808080808080808080808080808080803
:1019640008080808080808080808080808080808F3
:1019740008080808080808080808080808080808E3
:0619840008080808080035
:00000001FF
